:020000040800F2
:10000000F03D00204501000875100008330C000881
:1000100071100008090500085F25000800000000B5
:10002000000000000000000000000000A521000802
:100030000D05000800000000B7010008B922000803
:100040005F0100085F0100085F0100085F01000810
:100050005F0100085F0100085F0100085F01000800
:100060005F0100085F0100085F0100085F010008F0
:100070005F0100085F0100085F0100085F010008E0
:100080005F0100085F0100085F0100085F010008D0
:100090005F0100085F0100085F0100085F010008C0
:1000A0005F0100085F0100085F0100085F010008B0
:1000B0005F0100085F0100085F0100085F010008A0
:1000C0005F0100085F0100085F0100085F01000890
:1000D0005F010008352300085F0100085F01000888
:1000E0005F0100085F0100085F0100085F01000870
:1000F0005F0100085F0100085F0100085F01000860
:100100005F0100085F0100085F0100085F0100084F
:100110005F0100085F0100085F0100085F0100083F
:100120005F0100085F0100085F0100085F0100082F
:10013000DFF80CD000F09AF800480047052F0008BF
:10014000F03D00200648804706480047FEE7FEE7EE
:10015000FEE7FEE7FEE7FEE7FEE7FEE7FEE7FEE777
:10016000D522000831010008EFF3108072B6704705
:1001700080F310887047204C204D25604FF000041C
:1001800084F309881E4C4FF0010525701D4C4FF07B
:100190008055256062B6FEE730B41A4C4FF08055AA
:1001A000256030BC704730B4164C4FF08055256048
:1001B00030BC704700BF72B6EFF3098028B1203819
:1001C00080E8F00F10490968086000B50F488047C3
:1001D0005DF804EB0E480F490A7802700A480E4990
:1001E0000A680260106890E8F00F203080F30988F8
:1001F0004EF0040E62B6704720ED00E00000FFFFF5
:100200009200002004ED00E098000020BD180008D6
:100210008700002088000020A00000200649074A2F
:100220000868504343F239021044086040087047A0
:100230000149086070470000B40000206D4EC641BF
:1002400030B50B46014600202022012409E021FAA6
:1002500002F59D4205D303FA02F5491B04FA02F5A3
:100260002844151EA2F10102F1DC30BD064C074DF9
:1002700006E0E06840F0010394E807009847103476
:10028000AC42F6D3FFF758FF444B0008644B00081C
:1002900021B1826842F00102826003E0826822F0AC
:1002A000010282607047000010B504461248844283
:1002B00008D10121401501F0DBFE0021601501F09D
:1002C000D7FE17E00D48844208D10121001501F046
:1002D000CFFE0021201501F0CBFE0BE00848844240
:1002E00008D10121C80301F0C3FE00214FF40040F2
:1002F00001F0BEFE10BD00000024014000280140B6
:10030000003C0140014600208A6802F004020AB164
:10031000012000E0002070470146C86C80B27047A1
:100320000246002013680B400BB1012000E00020C2
:100330007047014600208A6802F008020AB10120D5
:1003400000E000207047000030B502460020002386
:1003500050680F4C20400D790C6844EA0524204376
:10036000506090680B4C2040D1E902542C434D79E9
:1003700044EA450420439060D06A20F470000C7C6D
:10038000641EE4B2234340EA0350D06230BD000053
:10039000FFFEF0FFFDF7F1FFF0B504460D4600202B
:1003A0000021092D11DDE068A5F10A0606EB4607DC
:1003B000072606FA07F18843A5F10A0606EB46066A
:1003C00003FA06F10843E0600CE0206905EB4507FD
:1003D000072606FA07F1884305EB450603FA06F1FE
:1003E00008432061072A0FDA606B561E06EB86076A
:1003F0001F2606FA07F18843561E06EB860605FA05
:1004000006F10843606322E00D2A0FDA206BD61F45
:1004100006EB86071F2606FA07F18843D61F06EB70
:10042000860605FA06F10843206310E0E06AA2F1AF
:100430000D0606EB86071F2606FA07F18843A2F190
:100440000D0606EB860605FA06F10843E062F0BDEC
:10045000816841F008018160704721B1826842F4EF
:10046000A002826003E0826822F4A00282607047EA
:10047000816841F0040181607047000000B587B0D9
:1004800001214FF4017001F0E3FD4FF4004001F051
:10049000D3FD0220ADF8040000208DF8070001A96B
:1004A000174800F065F81748FFF7FEFE002002909D
:1004B0008DF80C008DF80D004FF4602004900020A2
:1004C000059001208DF8180002A90E48FFF73CFFA7
:1004D00001210C48FFF7DCFE0A48FFF7B9FF00BF17
:1004E0000848FFF726FF0028FAD10648FFF7C0FFAB
:1004F00000BF0448FFF706FF0028FAD107B000BD8F
:10050000000801400024014000BFFEE770472DE9CC
:10051000F043D1B005460E461E27FFF77FFE0321AC
:1005200090FBF1F201FB120808F0FF0000F0F8F870
:1005300081464846FFF77CFE684602F027FB002410
:1005400004E05DF8240046F82400641C512CF8DB1C
:100550003946684602F064FD002404E05DF824009A
:1005600045F82400641C512CF8DB51B0BDE8F08341
:100570002DE9F0410246002500260020002300243A
:10058000002791F803C00CF00F0591F803C00CF0A0
:10059000100CBCF1000F03D091F802C04CEA050525
:1005A00091F800C0BCF1000F31D0146800202BE09E
:1005B0004FF0010C0CFA00F3B1F800C00CEA03068E
:1005C0009E4220D183004FF00F0C0CFA03F7BC437E
:1005D00005FA03FC4CEA040491F803C0BCF1280FAF
:1005E00006D14FF0010C0CFA00FCC2F814C00AE06E
:1005F00091F803C0BCF1480F05D14FF0010C0CFA83
:1006000000FCC2F810C0401C0828D1D31460B1F817
:1006100000C0BCF1FF0F34DD546800202EE000F173
:10062000080C4FF0010808FA0CF3B1F800C00CEA0E
:1006300003069E4221D183004FF00F0C0CFA03F702
:10064000BC4305FA03FC4CEA040491F803C0BCF176
:10065000280F05D100F1080C08FA0CF8C2F8148034
:1006600091F803C0BCF1480F07D100F1080C4FF01E
:10067000010808FA0CF8C2F81080401C0828CED3F4
:100680005460BDE8F0810000F0B50A460023002464
:100690000021002500F00046B6F1004F02D11D4EAA
:1006A000F16901E01B4E7168C0F3034583B200F4A9
:1006B0004016B6F5401F08D121F07061154E7668DE
:1006C00026F07066134F7E6012E000F48016B6F5D7
:1006D000801F06D1032606FA05F4A14341F070619C
:1006E00006E0460D360103FA06F6B14341F07061AB
:1006F00022B1460D360103FA06F6314300F00046FA
:10070000B6F1004F02D1034EF16101E0014E71607C
:10071000F0BD000000000140416170470161704779
:1007200010B504460723012221460948FFF734FE8D
:1007300001210748FFF791FE00BF02210448FFF79F
:10074000EFFD0028F9D00248FFF7E6FD10BD0000DC
:10075000002401402DE9F84F0746884693469A4603
:10076000DDF828900097B3E099F8000080283DDA82
:1007700099F800600D2E05D1009F08F110001FFAB6
:1007800080F830E0202E03DDA6F1200086B200E0E4
:100790000026002422E000251CE004EB061050494E
:1007A000085C80212941084040B108EB040291B265
:1007B0007A1990B25A4600F02CFA09E0D34507D0D6
:1007C00008EB040291B27A1990B2524600F021FA75
:1007D000681CC5B2082DE0DB601CC4B2102CDADB4B
:1007E00007F1080087B209F1010971E0002668E00D
:1007F00006EB06103B4911F8100099F800108842EA
:100800005DD106EB0610374901EB4000407899F8BE
:100810000110884253D100244FE0002520E006EB70
:100820000610304901EB4000801C10F814108020A5
:100830002841014041B108EB040291B27A1990B20B
:100840005A4600F0E6F909E0D34507D008EB040268
:1008500091B27A1990B2524600F0DBF9681CC5B229
:10086000082DDCDB002524E006EB06101D4901EB1A
:100870004000801C012101EB4401405C80212941A2
:10088000084048B108EB040291B27A19083290B2DC
:100890005A4600F0BEF90AE0D34508D008EB04023E
:1008A00091B27A19083290B2524600F0B2F9681C3F
:1008B000C5B2082DD8DB601CC4B2102CADDB701C97
:1008C00086B2322E94DB09F1020907F1100087B2DB
:1008D00099F8000000287FF447AFBDE8F88F0000CA
:1008E00044340008B64100082DE9F05F064688460A
:1008F00093469A46DDF82890E2E099F800008028B7
:1009000035DA99F80070202F03DDA7F1200087B2B7
:1009100000E00027002522E000241CE005EB071082
:100920006B49095C80202041014041B108EB050280
:1009300091B2321990B25A4600F06BF909E0D345F2
:1009400007D008EB050291B2321990B2524600F07E
:1009500060F9601CC4B2082CE0DB681CC5B2102D25
:10096000DADB09F1010906F1080086B2A8E00027E8
:100970009EE007EB870000EB4710564911F8100086
:1009800099F8001088427CD107EB870000EB4710F4
:10099000504901EB4000407899F801108842F2D1AB
:1009A000002580E0002423E007EB870000EB4710E0
:1009B000484901EB4000801C05EB4501405C80216B
:1009C0002141084040B108EB050291B2321990B2C2
:1009D0005A4600F01EF909E0D34507D008EB05029E
:1009E00091B2321990B2524600F013F9601CC4B2B1
:1009F000082CD9DB002426E007EB870000EB47102A
:100A0000344901EB4000801C05EB4501491C405C6A
:100A100080212141084048B108EB050291B232190A
:100A2000083290B25A4600F0F4F80AE0D34508D0F4
:100A300008EB050291B23219083290B2524600F02A
:100A4000E8F8601CC4B2082CD6DB002427E007EBD2
:100A5000870000EB47101F4901EB4000801C05EBAD
:100A60004501891C405C80212141084050B108EBC0
:100A7000050291B23219103290B25A4600F0C9F80C
:100A80000BE013E0D34508D008EB050291B2321910
:100A9000103290B2524600F0BCF8601CC4B2082C70
:100AA000D5DB681CC5B2182DFFF67CAF781C87B269
:100AB000142FFFF65EAF09F1020906F1180086B2A5
:100AC00099F8000000287FF418AFBDE8F09F0000FF
:100AD00044340008C44400082DE9F05F0746884606
:100AE00092469946002531E000242BE019490A98E6
:100AF00001EBC01000EB850010F804B000261DE0EB
:100B00008020304100EA0B0050B108EB050291B2A1
:100B100007EBC402324490B2524600F07AF80BE080
:100B2000CA4509D008EB050291B207EBC402324472
:100B300090B24A4600F06DF8701CC6B2082EDFDB9A
:100B4000601CC4B2042CD1DB681CC5B2202DCBDBE9
:100B5000BDE8F09F353A00082DE9FF4F83B080468D
:100B600089464946404600F050FA0598A0EB080532
:100B70000698A0EB0906002D02DB0120029003E09D
:100B80004FF0FF3002906D42002E02DB01200190F9
:100B900003E04FF0FF30019076424FEA450A4FEAFA
:100BA000460BB54219DDABEB0504002712E04946C0
:100BB0004046109A00F02DF8002C05DBA4EB0A0447
:100BC000019848441FFA80F95C44029840441FFA97
:100BD00080F87F1CAF42EADD18E0AAEB060400278C
:100BE00012E049464046109A00F013F8002C05DB4D
:100BF000A4EB0B04029840441FFA80F85444019877
:100C000048441FFA80F97F1CB742EADD07B0BDE80F
:100C1000F08F70B504460D461646681C83B2601C02
:100C200082B22946204600F0C5F9304600F038F877
:100C300070BD00BFFEE7000008B501212C2001F0C7
:100C400007FA4FF46050ADF8000010208DF8030053
:100C500003208DF8020069461048FFF789FCB02197
:100C60000E48FFF75BFD4FF44040ADF800006946C9
:100C70000A48FFF77DFC4FF440410848FFF74EFD5E
:100C80000420ADF8000069460448FFF771FC4FF4FA
:100C900080610248FFF742FD08BD0000000C0140E2
:100CA00010B504464FF40060084908604000091F71
:100CB0000860201201F056FAE0B201F053FA4FF446
:100CC00000600249091F086010BD0000140C0140BB
:100CD00008B50121082001F0BBF90121202001F015
:100CE000B7F90121084601F0B3F901210F48FFF7D8
:100CF000CBFC10208DF8030003208DF80200182093
:100D0000ADF8000069460A48FFF732FC1821084890
:100D1000FFF702FD0420ADF8000069460548FFF723
:100D200027FC04210348FFF7F9FC08BD000230004E
:100D3000000C01400014014070B506467F231A469E
:100D40000021084600F036F92C2000F07DF900243F
:100D500008E0002503E03046FFF7A2FF6D1C802D60
:100D6000F9D3641C802CF4D370BD10B5FFF764FF79
:100D700000F00CF9112000F067F9782001F0F4FC84
:100D8000B12000F061F9012000F04AF92C2000F0B8
:100D900047F92D2000F044F9B22000F055F9012068
:100DA00000F03EF92C2000F03BF92D2000F038F93E
:100DB000B32000F049F9012000F032F92C2000F0B6
:100DC0002FF92D2000F02CF9012000F029F92C201A
:100DD00000F026F92D2000F023F9B42000F034F9BA
:100DE000072000F01DF9C02000F02EF9A22000F02D
:100DF00017F9022000F014F9842000F011F9C12045
:100E000000F022F9C52000F00BF9C22000F01CF917
:100E10000A2000F005F9002000F002F9C32000F0DC
:100E200013F98A2000F0FCF82A2000F0F9F8C42019
:100E300000F00AF98A2000F0F3F8EE2000F0F0F854
:100E4000C52000F001F90E2000F0EAF8362000F08D
:100E5000FBF8C82000F0E4F8E02000F0F5F80F20DF
:100E600000F0DEF81A2000F0DBF80F2000F0D8F8D0
:100E7000182000F0D5F82F2000F0D2F8282000F03C
:100E8000CFF8202000F0CCF8222000F0C9F81F2075
:100E900000F0C6F81B2000F0C3F8232000F0C0F8D3
:100EA000372000F0BDF8002000F0BAF8072000F06D
:100EB000B7F8022000F0B4F8102000F0B1F8E120FB
:100EC00000F0C2F80F2000F0ABF81B2000F0A8F8EB
:100ED0000F2000F0A5F8172000F0A2F8332000F052
:100EE0009FF82C2000F09CF8292000F099F82E2083
:100EF00000F096F8302000F093F8302000F090F8E1
:100F0000392000F08DF83F2000F08AF8002000F032
:100F100087F8072000F084F8032000F081F8102003
:100F200000F07EF82A2000F08FF8002000F078F81A
:100F3000002000F075F8002000F072F87F2000F02B
:100F40006FF82B2000F080F8002000F069F80020F6
:100F500000F066F8002000F063F89F2000F060F8D1
:100F6000F02000F071F8012000F05AF8F62000F0AF
:100F70006BF8002000F054F83A2000F065F80520E6
:100F800000F04EF8292000F05FF810BD10B54FF4C6
:100F9000005007490860642001F0E6FB4FF4005060
:100FA0000349091F0860322001F0DEFB10BD00007C
:100FB000140C0140F0B504460D4616461F462A2083
:100FC00000F042F8002000F02BF8A11CC8B200F09D
:100FD00027F8002000F024F8B11CC8B200F020F877
:100FE0002B2000F031F8002000F01AF8E91CC8B2FC
:100FF00000F016F8002000F013F8F91CC8B200F059
:101000000FF82C2000F020F8F0BD30B504460D4656
:101010002B46224629462046FFF7CCFF30BD000074
:1010200010B504464FF40060064908604000091FEF
:101030000860204601F096F84FF400600149091F4E
:10104000086010BD140C014010B504464FF4006058
:101050000649086040000860204601F083F84FF41C
:1010600000600249091F086010BD0000140C014017
:1010700000BFFEE77047000070B5002100230F227B
:10108000C47804B3154C246804F4E064C4F5E06447
:10109000210AC1F10403CA40447804FA03F18478B8
:1010A0001440214309010E4C0678A155047804F040
:1010B0001F050124AC4005786D11AD0005F1E02558
:1010C000C5F8004109E0047804F01F050124AC4094
:1010D000044D0678761145F8264070BD0CED00E011
:1010E00000E400E080E100E002490143024A1160AF
:1010F000704700000000FA050CED00E010B500F0AC
:1011000013F800F01DFD00F045FD00F065FD00F056
:10111000EDFC00F0ADFC00F0F9FD00F09DFD00F0ED
:10112000C3FD00F002F810BD704770470648007814
:10113000012808D105480078FF2804D20348007828
:10114000401C024908707047920000208500002072
:1011500010B500241A480078012830D1FFF704F8B0
:1011600004461848007820B116480078401E1549FA
:10117000087014480078F8B913480078E0B900F016
:1011800027FE12481249097850F8210011490860D9
:101190000F4800781049097888420DD00D48006842
:1011A000806B401C0B49096888630C480068401C30
:1011B0000A490860FEF7F7FF2046FEF7D9FF10BD89
:1011C000920000208500002086000020843400204A
:1011D00088000020A0000020870000206C00002074
:1011E00070B5054600260F48007808B1002070BD94
:1011F000FEF7BAFF06460C480468006820B10A48AA
:1012000000684068084908603046FEF7B1FF3CB10D
:1012100001202070002020816560204600F019FC2C
:101220002046E4E7850000207000002010B500246F
:101230000B480078012811D1FEF796FF04460948B3
:10124000007840B908480078FF2804D206480078A2
:10125000401C054908702046FEF78AFF10BD0000BB
:1012600092000020850000208600002010B5002498
:1012700013480078012821D1FEF776FF0446114873
:101280000078C0B10F480078401E0E49087008462B
:10129000007860B90C48007828B92046FEF768FF4E
:1012A00000F05CFD0AE02046FEF762FF06E0204603
:1012B000FEF75EFF02E02046FEF75AFF10BD000079
:1012C00092000020860000208500002010B50B4809
:1012D000007890B900F07CFD094800780949087051
:1012E00009480749097850F821000849086008466C
:1012F000006807490860FEF73EFF10BD920000201D
:10130000880000208700002084340020A0000020F6
:1013100098000020704700002DE9FE4F06460F465A
:1013200090461C464FF00009FEF71EFF81461F48FD
:10133000007828B14846FEF71BFF3C20BDE8FE8F31
:101340001B4850F8240060BB0120194941F82400D3
:101350004846FEF70DFF002342463946304600F06E
:101360000BFA824600200090019003460246514647
:101370000290204600F042FD054635B90D48007840
:1013800001280CD100F0EAFC09E0FEF7EDFE8146F1
:101390000020074941F824004846FEF7E9FE2846A8
:1013A000CCE74846FEF7E4FE2820C7E7850000208A
:1013B00084340020920000202DE9F04F85B0814652
:1013C0008A4693461C46DDE90F78129D0020039063
:1013D000FEF7CAFE03902348007830B10398FEF769
:1013E000C7FE3C2005B0BDE8F08F1F4850F8240030
:1013F00088BB01201C4941F824000398FEF7B8FE81
:101400002A464146384600F009FE2B465A465146C8
:10141000484600F0B1F904901198CDE9008002959A
:101420003A4620460E9B049900F0E8FC064636B981
:101430000E48007801280CD100F090FC09E0FEF77E
:1014400093FE03900020084941F824000398FEF71A
:101450008FFE3046C6E7FFE70398FEF789FE282097
:10146000C0E70000850000208434002092000020A6
:10147000704700002DE9F0410546002747480078F5
:1014800010B14020BDE8F0813F2D01D13E20F9E7A9
:10149000FEF76AFE0746FF2D03D14148006890F829
:1014A0003250404850F8254024B93846FEF760FED7
:1014B0004320E7E7012C04D13846FEF759FE3D20D2
:1014C000E0E714F8340F3849085C617888432178E4
:1014D000354A505414F834091146085C30B994F870
:1014E000361032480078884330490870E06918B1F6
:1014F0002046E16900F098FA666A16B1304600F0BD
:10150000E3FA0020E06284F8300084F831002848D3
:101510000078FF2804D226480078401C244908702F
:101520003846FEF725FE00F07EFAFEF71DFE074660
:101530001F48007820B11E480078401E1C490870E2
:10154000204600F041F81B480078401E19490870F9
:101550000020144941F82500A06930B900206169D4
:10156000886115496069086005E0D4E905014861B2
:10157000D4E9051088611148006860610F48046073
:101580000FA0E0643846FEF7F3FD0E48007801280E
:1015900001D100F0E3FB002074E70000850000208B
:1015A00098000020843400208A0000208900002058
:1015B0008600002093000020A40000209C00002052
:1015C0003F00000092000020704770472DE9F04175
:1015D00006460F4614464FF000081548007818B12B
:1015E00012202070BDE8F081FEF7BEFD8046FF2E80
:1015F00003D11048006890F832600F4850F8265028
:101600002DB94046FEF7B4FD43202070EAE7012DD6
:1016100005D14046FEF7ACFD43202070E2E7EF64C1
:101620004046FEF7A5FD0020207000BFDAE700006D
:1016300085000020980000208434002070B5054605
:101640000026FEF791FD0646234850F8254024B9B0
:101650003046FEF78DFD462070BD012C04D130468A
:10166000FEF786FD4320F7E794F8300000F008000D
:1016700060B314F8300F00F0F700207014F8300950
:10168000F8B9E06AC8B93434A07814490978084335
:101690001249087020781249085C6178084314F8F0
:1016A00034190F4A50543046FEF762FD0D48007859
:1016B000012809D100F052FB06E03046FEF758FD44
:1016C00002E03046FEF754FD0020C5E73046FEF745
:1016D0004FFD4420C0E70000843400208900002032
:1016E0008A00002092000020704700002DE9F0479A
:1016F00007460D464FF0000A002028606860FEF79C
:1017000033FD8246FF2F03D11948006890F83270EC
:10171000184850F827402CB95046FEF729FD4320C1
:10172000BDE8F087012C04D15046FEF721FD43208F
:10173000F6E7207C00F0010020B95046FEF718FDC6
:101740004520EDE70026D4F80C90D4F808805046E8
:10175000FEF70EFD00E0761C58F8041B0029FAD0B5
:10176000B0002860A9EB0600800068600020D7E781
:10177000980000208434002070B5044610464FF0D5
:1017800080750560051F28462C606FF00106051F57
:1017900028462E604FF01236051F28462E604FF067
:1017A0000336051F28462E604FF00236051F2846D7
:1017B0002E607610051F28462E60051F28462960DA
:1017C0004FF01136051F28462E604FF01036051FCA
:1017D00028462E604FF00936051F28462E604FF030
:1017E0000836051F28462E604FF00736051F28468D
:1017F0002E604FF00636051F28462E604FF0053646
:10180000051F28462E604FF00436051F28462E601F
:1018100070BD00002DE9F04105464FF00008FEF7CD
:10182000A3FC8046FF2D05D12048006890F8325077
:10183000012608E01D48006890F83200A84201D156
:10184000012600E000261A4850F825402CB94046F1
:10185000FEF78EFC4820BDE8F081012C04D1404603
:10186000FEF786FC4320F6E794F834701148C05D1B
:1018700094F8351088430F49C8550846C05D30B903
:1018800094F836100C48007888430B49087094F897
:10189000300040F0080084F830004046FEF768FC55
:1018A000012E01D100F05AFA0020D4E79800002060
:1018B000843400208A000020890000207047000046
:1018C00070B5054600261748007800B170BD16486F
:1018D000007800B1FAE71DB3FEF746FC0646134850
:1018E000006890F834401248005D1049096891F88A
:1018F000351088430E4908550846005D40B90B482D
:10190000006890F836100B48007888430949087041
:1019100006480068C5623046FEF72AFC00F01EFA51
:1019200000BFD3E78500002086000020980000203B
:101930008A0000208900002070B5002600F072F8AF
:10194000FEF712FC064631480068401C2F4908602B
:101950003046FEF70DFC2E480078012853D12D4863
:10196000007820B1012804D0022809D103E0012524
:101970000BE0002509E0012501202649087004E05C
:10198000012500202349087000BF00BF05B970BDC4
:101990002148046833E0FEF7E7FB0646E06A50B3EF
:1019A000E06A401EE062E06A28BB94F8300000F074
:1019B000370040B114F8300F00F0C800207001204B
:1019C0006070303C02E0002084F8310094F8300070
:1019D00000F0080078B93434A07810490978084339
:1019E0000E49087020780E49085C6178084314F8A5
:1019F00034190B4A505464693046FEF7B9FB94F829
:101A000032003F28C7D100BFC1E70000B00000206E
:101A100092000020A8000020A400002089000020DF
:101A20008A0000207047704710B590F8342001F10B
:101A30000B039B5C90F83540A34301F10B04A354C6
:101A400023469B5C23B98B7A90F83640A3438B7274
:101A500010BD014600228A72002005E0002301F13A
:101A60000B021354421CD0B20828F7D37047000071
:101A70002DE9F0415021114800F03EF900250DE01C
:101A8000681C86B20D4800EB051400EB0617002019
:101A9000207067600AA0E060681C85B2042DEFD357
:101AA000064800EB051400202070606004A0E06090
:101AB000024804490860BDE8F0810000343000208D
:101AC0003F0000007400002030B501464A680868F5
:101AD0002AB9CC68606028B10025456002E010603A
:101AE00000B142608B6800255D6230BD70B5C821D1
:101AF000114800F001F900230FE0581C85B203EBF8
:101B000083000D4901EB800405EB850001EB8006A5
:101B1000002020706660581C83B2092BEDD303EBC4
:101B20008300054901EB80040020207060600846B6
:101B30000249086070BD00006C2F0020700000207A
:101B400000200A4908600A4908700A4908700A49D1
:101B500008700A4908700A4908600A4908600A4979
:101B600008600A4908600A4908707047B000002000
:101B700085000020860000209300002092000020B5
:101B80006C00002094000020800000207C000020D9
:101B90008400002000210A4A1170002004E0002186
:101BA000084A1154411CC8B20828F8D30021064A3B
:101BB0001170064A1170064A1160064A116070479A
:101BC000890000208A000020870000208800002073
:101BD000A00000209800002070B54FF47C711948D7
:101BE00000F08AF84FF48071174800F085F800245F
:101BF00013E0601CC5B2C4EBC40000EB4000114907
:101C000001EB8003C5EBC50000EB400001EB800653
:101C10005E610EA0D864601CC4B20B2CE9D3C4EB87
:101C2000C40000EB4000074901EB8003002058612D
:101C300006A0D864002006490860024805490860EB
:101C400070BD000084350020843400203F00000077
:101C5000A40000209C00002000B587B003200021D4
:101C600080220A4BCDE90132CDE903104FF6FF7017
:101C70003F23074A00900748FFF79EFB06AA06A1EC
:101C80003F20FFF7A3FC07B000BD00008432002016
:101C900080340020311F000875432F4F532D4949D0
:101CA0002049646C6500000000B587B00320002166
:101CB00080220A4BCDE90132CDE903104FF6FE70C8
:101CC0003E23074A00900748FFF776FB06AA06A1C5
:101CD0003E20FFF77BFC07B000BD000084300020F1
:101CE00080320020591F000875432F4F532D49495A
:101CF000205374617400000004E0002200F8012BFE
:101D00004A1E91B20029F8D1704700002DE9F04138
:101D100078211048FFF7F0FF00240DE0601C86B228
:101D200004EB44000B4901EBC00506EB460001EB58
:101D3000C0072F60601C84B2042CEFD304EB440076
:101D4000044901EBC00500202860084602490860EC
:101D5000BDE8F08174390020AC00002010B50024EB
:101D6000FEF702FA044613480078F8B912480078E2
:101D7000E0B900F02DF811481149097850F8210018
:101D8000104908600E4800780F49097888420DD044
:101D90000C480068806B401C0A49096888630B483E
:101DA0000068401C09490860FEF7F6F92046FEF776
:101DB000DFF910BD8500002086000020843400205B
:101DC00088000020A0000020870000206C00002078
:101DD0000649074A1278885C0649095C034A515C47
:101DE00001EBC001044A117070470000424A00082C
:101DF000890000208A000020880000202DE9F84F8B
:101E000005460F4690469946DDE90AAB0020009052
:101E1000FEF7AAF900903F480468002C74D01834EB
:101E200054F8040C3B4908600098FEF7A1F944F807
:101E3000187CA576002020766076606144F814BC9A
:101E400044F80CAC44F8108C0C9824F8080C24F8D6
:101E5000069C0020E077E810207705F00700E07688
:101E6000217F01208840A077E17E012088406077B3
:101E700000206060E060A0602062A0626062E062BA
:101E8000206325A06063183C002606E0002104F1D1
:101E9000500040F82610701CC6B2002EF6D0204626
:101EA000FFF738FA2046FFF7E3FAFEF75DF90090F6
:101EB0001A4840F825401A48006860610020A06177
:101EC0001748006810B1164800688461144804601F
:101ED0003434A078134909780843124908702078EF
:101EE0001149085C6178084314F834190E4A5054BB
:101EF0000E480078401C0D4908700098FEF738F92C
:101F00000020BDE8F88FFFE70098FEF731F9422086
:101F1000F7E700009C0000203F0000008434002010
:101F2000A4000020890000208A00002093000020E7
:101F3000002400BF00BFFEF717F9044605480068FB
:101F4000401C044908602046FEF712F9FFF73DFBEC
:101F5000F1E7000094000020002400BF02E02820E8
:101F6000FFF7AEFC194800780028F8D01848006840
:101F70006421B0FBF1F0164908600846006828B9F2
:101F8000002014490870FF20FFF744FC00BFFEF753
:101F9000EBF80446104800681049086000200E491C
:101FA00008602046FEF7E4F80C4800680849096814
:101FB000B0FBF1F0C0F1640006490870FFF794FB34
:101FC00000F00EF81420FFF77BFCE0E7840000200F
:101FD0007C00002078000020940000208000002079
:101FE0007CB5002514E069462846FFF77FFB0646CE
:101FF00066B9094850F8254044B1012C06D0D4E90F
:10200000020100EB810060640198A064681CC5B205
:102010003F2DE8D97CBD00008434002002F001038C
:1020200043B102F002032BB102E0491E002308C0B5
:102030000029FAD17047000001460020034A506889
:1020400020F44040084350607047000000100240F8
:1020500029B1064A92690243044B9A6104E0034A9B
:1020600092698243014B9A61704700000010024060
:1020700029B1064AD2680243044BDA6004E0034AFD
:10208000D2688243014BDA607047000000100240C2
:1020900030B500210022002400232D4D6D6805F08D
:1020A0000C0121B1042905D0082923D105E0294DCF
:1020B000056022E0274D05601FE0254D6D6805F4A1
:1020C0007012234D6D6805F48034022505EB9242B1
:1020D0001CB9214D554305600BE01D4D6D6805F49D
:1020E00000351DB11C4D5543056002E0194D5543A7
:1020F000056002E0174D056000BF00BF144D6D681C
:1021000005F0F0010909154D6B5C0568DD4045607F
:102110000F4D6D6805F4E061090A104D6B5C456870
:10212000DD4085600A4D6D6805F46051C90A0B4DAC
:102130006B5C4568DD40C560054D6D6805F4404148
:10214000890B074D6B5CC568B5FBF3F5056130BDC8
:102150000010024000127A0000093D0056000020E5
:10216000660000200021082117E000F0800222B163
:102170004FF480420A4B1A6004E04FF48042084B4F
:102180001B1D1A604FF40042054B1B1D1A601B1FDC
:102190001A604206100E4A1ED1B20029E5DC7047D3
:1021A000100C0140704710B500F002F810BD00009F
:1021B0000CB50020019000903348006840F4803056
:1021C0003149086000BF3048006800F400300090DA
:1021D0000198401C0190009818B90198B0F5A06FC3
:1021E000F1D12948006800F4003010B101200090BE
:1021F00001E0002000900098012843D123480068A6
:1022000040F01000214908600846006820F00300F3
:1022100008600846006840F0020008601A484068FC
:10222000194948600846406848600846406840F4DC
:10223000806048600846406820F47C10486008468A
:10224000406840F4E81048600846006840F080703C
:10225000086000BF0C48006800F000700028F9D04A
:102260000948406820F00300074948600846406874
:1022700040F00200486000BF0348406800F00C00D6
:102280000828F9D10CBD00000010024000200240D7
:10229000042808D14FF0E021096941F004014FF012
:1022A000E022116107E04FF0E021096921F004010B
:1022B0004FF0E0221161704710B505480078012801
:1022C00005D1FEF733FFFFF737FBFEF741FF10BDE7
:1022D0009200002010B51348006840F00100114939
:1022E000086008464068104908400E4948600846A2
:1022F00000680E4908400B4908600846006820F451
:10230000802008600846406820F4FE0048604FF4D2
:102310001F008860FFF747FF4FF000600449086026
:1023200010BD0000001002400000FFF8FFFFF6FEA5
:1023300008ED00E010B5FEF7F9FE40F225511E4809
:1023400000F04CF810B31C4800F004F9C4B21B486C
:10235000008800F40040C8B91848008800F48040A4
:1023600060B10A2C03D000201449088020E01348F3
:10237000008840F400401149088019E00D2C06D176
:102380000E48008840F480400C49088010E00B485B
:102390000088C0F30D000A490C5408480088401C0E
:1023A0000649088008460088C72801DD002008800B
:1023B000FEF7CEFE10BD00000038014054000020A2
:1023C000A42E002021B1828942F40052828104E0CF
:1023D00082894DF6FF731A408281704770B50246BC
:1023E000002400230025002040F66A16B14200D1E7
:1023F00000BFC1F3421501F01F03012606FA03F3E3
:10240000012D02D19689334006E0022D02D1168AB1
:10241000334001E0968A33400C12012606FA04F498
:102420001688344013B10CB1012000E0002070BDCB
:10243000F0B50346002400260025002040F66A1768
:10244000B94200D100BF1846C1F3421401F01F0683
:10245000012707FA06F5012C01D10C3004E0022C0B
:1024600001D1103000E014301AB107682F43076023
:1024700002E00768AF430760F0BD00002DE9F047B8
:1024800086B005460E460024A24600BFA14600279E
:10249000B08900B100BF2F462C8A4CF6FF70044073
:1024A000F08804432C82AC894EF6F3100440B088C7
:1024B00031890843718908430443AC81AC8A4FF6E3
:1024C000FF400440B0890443AC8201A8FFF7E0FD5F
:1024D0001F48874202D1DDF810A001E0DDF80CA012
:1024E000A88900F4004040B10AEBCA0000EB0A10D2
:1024F00031684900B0FBF1F807E00AEBCA0000EBD5
:102500000A1031688900B0FBF1F86420B8FBF0F0E4
:1025100004012009642101FB1089A88900F400400E
:1025200040B1322000EBC900B0FBF1F000F0070031
:10253000044308E0322000EB09106421B0FBF1F005
:1025400000F00F0004432C8106B0BDE8F0870000C6
:102550000038014001468888C0F30800704700BF7A
:10256000FEE700000FB4084B10B504A902AA0398B7
:1025700000F01CF8044602A9002000F0C1F8204633
:1025800010BC5DF814FB00000127000802E008C839
:10259000121F08C1002AFAD170477047002001E0DD
:1025A00001C1121F002AFBD1704700002DE9FF4F27
:1025B00089B09B460446002506E025280BD05A46E4
:1025C0000B999047641C6D1C20780028F5D10DB044
:1025D0002846BDE8F08F0027B8460122474900E0B1
:1025E000074314F8013F203B02FA03F00842F7D1F9
:1025F00020782E2819D114F8010F47F004072A2853
:102600000ED06FF02F022078A0F1300109290CD8EC
:1026100008EB880102EB410100EB0108641CF2E7C2
:102620000A98641C50F8048B0A9020780028CED0B9
:10263000642808D0692806D075281ED05A460B9900
:1026400090476D1C58E00A994FF00A0901C90A9198
:10265000002802DA40422D2102E0390504D52B2161
:102660008DF82010012103E0F90704D02021F7E7BD
:102670008A4608AE0DE00021FAE70A994FF00A09F0
:1026800001C90A91F7E74946FDF7DAFD303106F84E
:10269000011D0028F7D1ADEB060000F120097807F5
:1026A00001D44FF00108C84502DDA8EB090000E0A5
:1026B00000208046002706E008A85A46C05D0B9916
:1026C00090476D1C7F1C5745F6DB04E030205A46CE
:1026D0000B9990476D1CB8F10001A8F10108F5DCD9
:1026E00005E016F8010B5A460B9990476D1CB9F19D
:1026F0000001A9F10109F4DC641C65E70928010067
:102700000A68531C0B6010707047000010B56FF022
:102710000400FFF7BDFD104800681049B0FBF1F060
:102720000F4908700C4800680C49B0FBF1F441F205
:102730008830444305200B4908804FF0E0200069B1
:1027400040F002004FF0E021086108464461006952
:1027500040F00100086110BD1400002000127A0052
:102760004C0000204E00002070B504460F48007851
:10277000A0B10F48007888B90E480088844206DB73
:102780000C48008894FBF0F5284600F01DF8094835
:10279000008894FBF0F100FB114084B24FF47A7191
:1027A00004FB01F000F016F870BD0000920000205C
:1027B000850000204E00002010B5FEF737FD10BD4B
:1027C00010B5FEF753FD10BD10B504462046FFF7C7
:1027D00077F810BD2DE9F047074600264FF0E020BE
:1027E000D0F814901148007807FB00F800BFFFF7FD
:1027F000E3FF4FF0E020856911E04FF0E0208469AD
:10280000AC420CD0AC4202D2281B064403E0A9EB38
:102810000400284406442546464500D300E0ECE782
:1028200000BFFFF7CDFFBDE8F08700004C0000209F
:102830002DE9F04105460C46512C02DB0120BDE894
:10284000F08155F8240020B1611C2846FFF7F0FF05
:10285000F5E709210F4800F023FD002615E00D489B
:1028600050F826703A462146284600F0DFF958B164
:1028700045F82470611C2846FFF7DAFF08B10120F3
:10288000DDE7002045F82400761C092EE7DB002058
:10289000D5E700002800002008B54EF67D70FEF751
:1028A0004BFA10A04EF67D734FF478421E21009033
:1028B0000846FDF74FFF0EA04EF67D731F22412103
:1028C00000901E20FDF746FF0CA04EF67D731F22E0
:1028D000552100901E20FDF73DFF4FF47A70FFF761
:1028E00043FF08BDCAFDB6C0D3CECFB7000000007D
:1028F000BFAACABCD3CECFB700000000C9E8D6C378
:10290000CAB1BCE4000000000720FEF783FFFFF718
:10291000C3FF1FE000F0F6F90F4908800846008861
:1029200014280FD108230D4A00210D48FEF7F4FCAE
:1029300009230C4A00210C48FEF7EEFC0620FEF7A6
:1029400099FD07E004480088132803D100F080FBBC
:10295000FFF7A2FFDEE7000008000020B4230020FC
:102960006D290008B4240020353300081824002500
:102970000020804941F824007F497E48FDF7C7FDCB
:1029800021467C4800F0B8FBF2E000F0BBF97B493F
:1029900008800846008815283AD2DFE800F0E86F82
:1029A00079838D97A0A9B2BBC4CDD6DFE8E8E862F1
:1029B000473A0B0070496F4800F026F90546DDB133
:1029C0006F48006800F050FC14E000F09BF96B4980
:1029D00008800846008814280CD10623694A002183
:1029E0006948FEF799FC0820FEF744FD0920FEF730
:1029F00041FD00E0E9E70BE00920FEF70BFF00F0E6
:102A000063FB0920FEF71AFE21465A4800F074FBCA
:102A1000ADE006235B4A00215B48FEF77DFC082001
:102A2000FEF728FD0920FEF725FDA0E00920FEF7AE
:102A3000F1FE5348006800F0BBFB0BE000F062F9C8
:102A40004E49088008460088122803D10920FEF765
:102A5000F5FD00E0F2E700BF2146464800F04CFBE0
:102A600085E00121444800F047FB40F6B830FFF70D
:102A70007BFE18213F4800F03FFB78E0093C002C2A
:102A800004DD21463B4800F037FB00E009346EE0EE
:102A90000934522C04DA2146364800F02DFB00E0C0
:102AA000093C64E0641E002C04DD2146314800F03E
:102AB00023FB00E0641C5AE0641C522C04DA21461B
:102AC0002C4800F019FB00E0641E50E00120294969
:102AD00041F824002146274800F00EFB47E0022081
:102AE000244941F824002146224800F005FB3EE03D
:102AF0000320204941F8240021461E4800F0FCFA3A
:102B000035E004201B4941F824002146194800F013
:102B1000F3FA2CE00520174941F824002146154816
:102B200000F0EAFA23E00620124941F82400214689
:102B3000104800F0E1FA1AE007200E4941F824009D
:102B400021460C4800F0D8FA11E00820094941F864
:102B500024002146074800F0CFFA08E00920054983
:102B600041F824002146034800F0C6FA00BF00BF28
:102B70000BE70000B82B0020FC2C002008000020F0
:102B80000C000020B41B0020092900082DE9F041A9
:102B90000546002403E0002045F82400641C512C65
:102BA000F9DB002428E0FDF739FB512190FBF1F21D
:102BB00001FB1206FDF732FB092190FBF1F201FB4C
:102BC0001200471C0EE0FDF729FB512190FBF1F2AA
:102BD00001FB1206FDF722FB092190FBF1F201FB3C
:102BE0001200471C3A463146284600F01FF80028DC
:102BF000E9D045F82670641C092CD4DB0021284656
:102C0000FFF716FEBDE8F08110B502460B46002125
:102C100008E052F8210053F82140A04201D00020E2
:102C200010BD491C5129F4DB0120F9E72DE9F043DF
:102C300003460C46092094FBF0F694FBF0F900FBE8
:102C4000194806EBC60107E053F82100904202D173
:102C50000020BDE8F083491C06EBC600093088421D
:102C6000F2DC414606E053F82100904201D10020F9
:102C7000EFE709315129F6DB032096FBF0F000EB7A
:102C80004007032098FBF0F000EB400C394610E0C1
:102C9000654609E001EBC100284453F8200090424A
:102CA00001D10020D5E76D1C0CF103008542F1DB5A
:102CB000491CF81C8142EBDB0120CAE708B5012161
:102CC0001020FFF7C5F940F60F70ADF8000048205E
:102CD0008DF8030003208DF8020069460848FDF7CF
:102CE00047FCF020ADF8000010208DF80300032011
:102CF0008DF8020069460248FDF73AFC08BD000065
:102D0000001001407FB500265E4AD2E90030D2E9CA
:102D10000212CDE90030CDE902125B48006800B92B
:102D200011265948001D006800B91226564808307F
:102D3000006800B9132654480C30006800B9142606
:102D400000247FE034B1012C13D0022C21D0032CBD
:102D50003ED12EE000204C497031086001204B49E3
:102D6000C1F894014849783108604849C1F89C018C
:102D70002EE0012044497031086000204349C1F829
:102D8000940101204049783108604049C1F89C0114
:102D90001EE001203C49703108603C49C1F89401B3
:102DA000002039497831086001203849C1F89C0178
:102DB0000EE001203449703108603449C1F89401B3
:102DC00031497831086000203049C1F89C0100BFCA
:102DD00000BF002532E035B1012D0ED0022D16D0F6
:102DE000032D28D11DE028482038006820B9002094
:102DF000694601EB840148551DE023481C380068F2
:102E000020B90020694601EB8401485513E01E48B3
:102E10001838006820B90020694601EB8401485544
:102E200009E019481438006820B90020694601EB10
:102E30008401485500BF00BF681CC5B2042DCADB21
:102E4000601CC4B2042CFFF67DAF002411E0002505
:102E50000AE0684600EB8400405D18B905EB840089
:102E6000461C03E0681CC5B2042DF2DB00BF601CE9
:102E7000C4B2042CEBDB9620FFF776FC304604B09E
:102E800070BD0000343400082001224200002242BC
:102E90000120194908601949C1F88C0118490860D6
:102EA00028E04FF4FA70FFF75FFC01201249086038
:102EB00000201249C1F88C010120114908604FF42B
:102EC000FA70FFF751FC01200B4908600C49091FFB
:102ED000086000200949C1F890014FF4FA70FFF72B
:102EE00043FC00200449086001200549091F0860CF
:102EF000091D0860D5E70000888122420080214238
:102F00009081214210B54FF4A060FEF7EDF8FFF775
:102F1000FDFBFDF7DDFEFFF7D1FE4FF4165000F08C
:102F200039FAFDF7ABFAFEF7E9F80A23044A002163
:102F30000448FEF7F1F9FEF7C9F9002010BD0000C2
:102F4000B4080020D532000808B5FDF70EFF4FF495
:102F50008060184908604EF67D70FDF7EDFE16A002
:102F60004EF67D731F22052100902820FDF7F2FB0D
:102F700013A04EF67D734FF47842192100900A2079
:102F8000FDF7E8FB12A04EF67D731F223221009060
:102F90002820FDF7DFFB10A04EF67D734FF478423A
:102FA0004B2100900A20FDF7D5FB4FF47A70FFF714
:102FB000DBFB08BD100C0140D5C5C9C6BCF800003C
:102FC000333231323035323035313336370000006C
:102FD000BBC6BFA1C8D900003332313230353230E0
:102FE0003531333731000000FFF7AEFF11E0FFF756
:102FF00089FE0849088008460088142809D14EF641
:103000007D70FDF799FE0623034A00210348FEF771
:1030100083F9ECE708000020B41B00200929000810
:103020002DE9F04104460E4600270DE0FDF7F6F8C5
:10303000512190FBF1F201FB120554F8250018B163
:10304000002044F825007F1CB742EFDBBDE8F0818B
:1030500010B51B48006800F0ABF82DE0FFF752FEFA
:10306000184908800846008801280ED114480068D5
:10307000B0F5777F04DC124800680A301049086018
:103080000F48006800F094F816E00E480088022807
:103090000DD10B4800680A2804DD094800680A3889
:1030A000074908600648006800F082F804E0054817
:1030B0000088132800D100E0D0E700BF10BD000059
:1030C000100000200800002008B54EF67D70FDF7C6
:1030D00033FE07A04EF67D734FF478423221009004
:1030E0000846FDF737FB4FF47A70FFF73DFB08BD4C
:1030F0004572726F720000002DE9F843074688465A
:103100000024082500264FF001094EF67D70FDF7DA
:1031100013FE00BF26E057F8242023A12348FFF721
:1031200021FA44450AD12148B1B20090A8B24EF626
:103130007D734FF47842FDF70DFB08E01B48B1B2F8
:103140000090A8B24EF67D731F22FDF703FB0D35EC
:10315000B9F1090F03D14FF000090E36082509F126
:103160000109641C512CD6DB0E261325002408E02F
:103170000020B3B2B1B282220090FDF7EDFC0E3612
:10318000641C082CF4DB002409E00020AAB20090A3
:10319000A8B282230021FDF7DFFC0D35641C082C4A
:1031A000F3DBBDE8F883000025640000402E00201A
:1031B000F8B5044600274B2500264EF67D70FDF736
:1031C000BBFDB4F57A7F09DB15A04EF67D731F2297
:1031D000462100901E20FDF7BDFA1FE012A04EF61A
:1031E0007D731F22462100906E20FDF77DFB002697
:1031F00012E00A2094FBF0F100FB1147B8B20090F6
:10320000A8B24EF67D731F223221FDF765FC193DF1
:103210000A2094FBF0F4761C032EEADBF8BD0000D4
:103220006F766572000000005300000038B5044658
:103230004EF67D70FDF780FD2046FFF7B9FF07A031
:103240004EF67D734FF47842192100902320FDF74C
:1032500081FA4FF47A70FFF787FA38BD54696D65CB
:10326000206F75740000000038B504464EF67D707E
:10327000FDF762FD2046FFF79BFF07A04EF67D732A
:103280004FF47842192100902620FDF763FA4FF49D
:103290007A70FFF769FA38BD566963746F72790006
:1032A0002DE9F04104460F467D1E0FE0FCF7B6FF06
:1032B000691C90FBF1F201FB120654F8258054F8CA
:1032C000260044F8250044F826806D1E002DEDDC14
:1032D000BDE8F08170B50446002500BF0020FDF771
:1032E0007FFF0E4908600020FDF77AFF0C49086057
:1032F000FCF73AFF054604230A4A00210A48FEF774
:103300000BF80723094A00210948FEF705F80A20AF
:10331000FEF7B0F82846FCF72BFF70BD0000002038
:1033200004000020B40A0020912E0008B41A0020E6
:10333000E92F000800201349086021E04FF4617074
:10334000FFF712FA0F480068401C0E4908600E484B
:1033500000680968884213DA0A480068FFF766FFC8
:1033600040F6B830FFF700FA0623084A0021084863
:10337000FDF7D2FF0820FEF77DF80920FEF77AF866
:10338000DCE700000C00002010000020B41B00202F
:103390000929000810B586B00446012144F2040052
:1033A000FEF756FE4FF40070ADF8140003208DF8C0
:1033B000160018208DF8170005A91C48FDF7D8F84D
:1033C0004FF48060ADF8140004208DF8170005A9B3
:1033D0001648FDF7CDF825208DF8000003208DF864
:1033E00001008DF8020001208DF803006846FDF70A
:1033F00043FE01940020ADF80800ADF80A00ADF8D6
:103400000C00ADF810000C20ADF80E0001A9084822
:10341000FFF734F8012240F225510548FFF708F87C
:1034200001210348FEF7CEFF06B010BD00080140A1
:103430000038014001010101010101010101010107
:103440000101010100000000000000000000000078
:1034500000000000001010101010101010100000DC
:103460001010000000006C6C24240000000001001B
:10347000000000000024242424FE48484848FC9012
:103480009090900000103C54929050381412129278
:10349000547810000000225C94A8481010242A528E
:1034A00054880000000030484850206E54948C88A6
:1034B0008A7400000000303010100000000000008E
:1034C0000000000000040810102020202020201000
:1034D0001008040000804020201010101010102050
:1034E00020408000000000001054381038541000B4
:1034F0000000000000000010101010FE101010104E
:1035000000000000000000000000000000000000BB
:103510001010200000000000000000FE000000006D
:10352000000000000000000000000000000000009B
:103530001010000000000404080810102020404073
:1035400080800000000038448282828282828282EF
:1035500044380000000010701010101010101010EF
:10356000107C000000003844828204081020408251
:1035700084FC000000003844820204380402028205
:10358000443800000000040C141424244444FE04B5
:10359000040E00000000FC808080B8C48202028219
:1035A0008478000000003C428280B8C4828282821B
:1035B0004438000000007E4282040408080810100D
:1035C0001010000000003844828244384482828215
:1035D000443800000000384482828282463A0282E7
:1035E000443800000000000010100000000010101F
:1035F000000000000000000010100000000000109B
:10360000102000000000000006186080601806000E
:1036100000000000000000000000FE0000FE0000AE
:103620000000000000000000C0300C020C30C000A0
:1036300000000000003844828202040810101000CC
:103640001010000000003844829AAAAAAAAAAA96DA
:1036500080423C00000010101028282844447C447C
:1036600044EE00000000FC424242427C42424242A0
:1036700042FC000000003C44828080808080828286
:10368000443800000000F844424242424242424272
:1036900044F800000000FC444240447C4440404266
:1036A00044FC00000000FC444240447C4440404054
:1036B00040F000000000344C828080808E8484843E
:1036C0004C3400000000EE444444447C44444444F0
:1036D00044EE000000007C101010101010101010AC
:1036E000107C000000003E08080808080808088848
:1036F000887000000000EE4448485060504848443C
:1037000044EE00000000E040404040404040404265
:1037100044FC00000000C6446C6C6C545454444497
:1037200044EE00000000CE4464646454544C4C4C9D
:1037300044E40000000038448282828282828282D5
:10374000443800000000F84442424244784040407F
:1037500040E000000000384482828282828282BA85
:10376000443C02000000F04844444448704844444B
:1037700044E6000000003C44828040300C0202829B
:103780004478000000007C549210101010101010AB
:10379000103800000000EE4444444444444444448F
:1037A000443800000000EE444444442828282810EF
:1037B000101000000000EE4454545454545428286F
:1037C000282800000000EE4444282810102828442F
:1037D00044EE00000000EE44442828281010101089
:1037E0001038000000007E44840808102020408229
:1037F00084FC0000001C101010101010101010108D
:1038000010101C000000EE445454FE545454282858
:103810002828000000701010101010101010101048
:10382000101070000030488400000000000000000C
:103830000000000000000000000000000000000088
:103840000000FE000040200000000000000000001A
:10385000000000000000000000007884047C8484E4
:103860008C7600000000C040404058644242424212
:103870006458000000000000000038448080808010
:103880004438000000000C040404344C8484848414
:103890004C360000000000000000788484FC80802A
:1038A00084780000000018242020F8202020202008
:1038B000207000000000000000003A444478807C42
:1038C00082827C000000C04040405864444444442C
:1038D00044EE000000001010000030101010101016
:1038E00010380000000010100000301010101010F0
:1038F000109060000000C04040405C48506050485C
:1039000044EE0000000030101010101110101010C4
:1039100010390000000000000000ACD29292929298
:1039200092D6000000000000000058E444444444E3
:1039300044EE0000000000000000384482828282D1
:1039400044380000000000000000D8644242426495
:103950005840E000000000000000364C8484844C95
:1039600034040E000000000000006C3020202020F5
:103970002070000000000000000078888460188437
:1039800044780000000000202020F8202020202083
:1039900024180000000000000000C64242424242DB
:1039A000463A0000000000000000EE4444282828A9
:1039B00010100000000000000000EE4444545428A1
:1039C00028280000000000000000EE442810102805
:1039D00044EE0000000000000000EE4444282810DF
:1039E00010A0C0000000000000007E4488102042AB
:1039F00084FC0000000C101010101060101010104B
:103A000010100C00001010101010101010101010DA
:103A10001010100000C0202020202018202020207E
:103A20002020C00000000000000000728C00000098
:103A3000000000000000000000001FE000003FF058
:103A400000003FF000001FE0000180060003C00FEF
:103A50000003C00F0003C00F0003C00F0003C00F1E
:103A60000003C00F0003C00F0003C00F00030003DA
:103A70000000000000000000000000000003000340
:103A80000003C00F0003C00F0003C00F0003C00FEE
:103A90000003C00F0003C00F0003C00F0003C00FDE
:103AA0000001800600001FE000003FF000003FF032
:103AB00000001FE000000000000000000000008087
:103AC00000000180000003800000078000000780E4
:103AD00000000780000007800000078000000780CA
:103AE00000000780000007800000078000000180C0
:103AF0000000000000000000000000000000018045
:103B00000000078000000780000007800000078099
:103B10000000078000000780000007800000078089
:103B2000000007800000038000000180000000808A
:103B3000000000000000000000001FE000003FF057
:103B40000000FFF00001FFE0000000060000000F91
:103B50000000000F0000000F0000000F0000000F29
:103B60000000000F0000000F0000000F00001FE326
:103B700000007FF800007FF800001FE00003000055
:103B80000003C0000003C0000003C0000003C00029
:103B90000003C0000003C0000003C0000003C00019
:103BA0000001800000001FF000003FF800003FFC13
:103BB00000001FFE000000000003FF800001FFC0A6
:103BC0000000FFC000007F80000000180000003CE3
:103BD0000000003C0000003C0000003C0000003CF5
:103BE0000000003C0000003C0000003C00007F8C16
:103BF0000001FFE00001FFF000007F800000000CEA
:103C00000000003C0000003C0000003C0000003CC4
:103C10000000003C0000003C0000003C0000003CB4
:103C20000000001800007F800000FFC00001FFC0FE
:103C30000003FF80000000000000000000020001FF
:103C400000030003000380070003C00F0003C00F40
:103C50000003C00F0003C00F0003C00F0003C00F1C
:103C60000003C00F0003C00F0003C00F00031FE3D9
:103C700000007FF800007FFC00001FE00000000350
:103C80000000000F0000000F0000000F0000000FF8
:103C90000000000F0000000F0000000F0000000FE8
:103CA0000000000F000000070000000300000001FA
:103CB000000000000000000000001FFC00003FF8B2
:103CC00000003FF000001FE0000180000003C00082
:103CD0000003C0000003C0000003C0000003C000D8
:103CE0000003C0000003C0000003C00000031FE089
:103CF00000007FF800007FF800001FE000000003D4
:103D00000000000F0000000F0000000F0000000F77
:103D10000000000F0000000F0000000F0000000F67
:103D20000000000600003FE000007FF00000FFF010
:103D30000001FFE00000000000001FFC00003FF851
:103D400000003FF000001FE0000180000003C00001
:103D50000003C0000003C0000003C0000003C00057
:103D60000003C0000003C0000003C00000031FE008
:103D700000007FF800007FFC00001FE0000300034C
:103D80000003C00F0003C00F0003C00F0003C00FEB
:103D90000003C00F0003C00F0003C00F0003C00FDB
:103DA0000001800600001FE000003FF000003FF02F
:103DB00000001FE0000000000007FFE00003FFC05C
:103DC0000001FF880000FF180000003800000078A4
:103DD0000000007800000078000000780000007803
:103DE0000000007800000078000000780000001853
:103DF00000000000000000000000000000000018AB
:103E000000000078000000780000007800000078D2
:103E100000000078000000780000007800000078C2
:103E200000000078000000380000001800000008C2
:103E3000000000000000000000001FE000003FF054
:103E400000003FF000001FE0000180060003C00FEB
:103E50000003C00F0003C00F0003C00F0003C00F1A
:103E60000003C00F0003C00F0003C00F00031FE3D7
:103E700000007FF800007FFC00001FE0000300034B
:103E80000003C00F0003C00F0003C00F0003C00FEA
:103E90000003C00F0003C00F0003C00F0003C00FDA
:103EA0000001800600001FE000003FF000003FF02E
:103EB00000001FE00000000000001FE000003FF0D5
:103EC00000003FF000001FE0000180060003C00F6B
:103ED0000003C00F0003C00F0003C00F0003C00F9A
:103EE0000003C00F0003C00F0003C00F00031FE357
:103EF00000007FF800007FFC00001FE000000003CE
:103F00000000000F0000000F0000000F0000000F75
:103F10000000000F0000000F0000000F0000000F65
:103F20000000000600001FE000003FF000007FF0EE
:103F30000000FFE0000000000000000000000000A2
:103F40000000000000000000000000000000000071
:103F50000000000000000000000000000000000061
:103F60000000000000000000000000000000000051
:103F70000000000000000000000000000000000041
:103F80000000000000000000000078000000780041
:103F90000000780000007800000078000000780041
:103FA0000000000000000000000000000000000011
:103FB0000000000000000000000000000000000001
:103FC00000000000000000000000000000000000F1
:103FD000000000000000070000000F8000000F80BC
:103FE00000000F800000070000000000000000003B
:103FF00000000000000000000000000000000000C1
:104000000000070000000F8000000F8000000F80FC
:104010000000070000000000000000000000000099
:104020000000000000000000000000000000000090
:104030000000000000000000000000000000000080
:10404000000000000007C006000FE0060000000CA2
:1040500000301818003018180030183000301830B0
:1040600000301860003008C00007C0C0000FE080BA
:10407000000000000000000FE0000607C00006304E
:1040800018000C3018000C301800183018003030B0
:1040900018003030180060000000C00FE000C007BA
:1040A000C000000000000000000000000000000050
:1040B0000000000000000000000000000000000000
:1040C000000000000000000000000000000700E009
:1040D000000887FC00088E0300089801800718007C
:1040E0008000300000003000000070000000600020
:1040F0000000600000006000000060000000600040
:1041000000007000000030000000300000003800A7
:104110000000180100000C03000007FC000001F083
:10412000000000000000000000000000000000008F
:10413000000000000000000000000000000000007F
:10414000000000000000000000000000000000006F
:10415000000000000000000000000000000000005F
:10416000000000000000000000000000000000004F
:1041700000003FF000007FF000007FE00000FFC083
:10418000000000000000000000000000000000002F
:10419000000000000000000000000000000000001F
:1041A000000000000000000000000000000000000F
:1041B000000000000000BBC604403FF8044004407B
:1041C000FFFE01001FF0111011101FF0111011104F
:1041D0001FF0044008201010BFA1084008400888C4
:1041E000110413FE300230885144924210F81188B5
:1041F00012501020105011881606C8D90820082027
:10420000FFFE082000007FFE4002810401007FFCC9
:104210000380054009203118C1060100D5C5010001
:10422000F9080908091009207940410047FE41407A
:104230007920092009100908094451822100C9C6C2
:10424000082004407FFC01003FF80100FFFE111030
:104250000920FFFE00003FF8200820083FF8200852
:10426000BCF804402440247C249024882508028043
:104270000C603018CFE601003FF8092005407FFCB4
:104280000000BFAA00007FFC0820082008200820AA
:104290000820FFFE082008200820082010201020F9
:1042A00020204020CABC1020102010201040FC48C4
:1042B000248425FE2482240048FC28841084288439
:1042C000448480FC0084D3CE02102110111017BE4C
:1042D0008220424043BC128412882288E2BE228897
:1042E0002488248829A81010CFB700200028002493
:1042F0007E240220023E25E01424082408281428E5
:1043000012102232404A00860102D0C21000080476
:104310007F78004022401440FF7E084808487F48CC
:1043200008482A484948888828881108D4DD100C94
:10433000FEF0208048807EFE08880E88F9084A0832
:104340001FF8101010101FF0101010101FF0CDA348
:104350001080104017FC200023F8620863F8A000CA
:104360002FFE280223F820402040204021402080BA
:10437000BDE110201020202027FE4420F82011FC51
:1043800020004000FDFC410401041D04E10441FC47
:104390000104CAF801000100FFFE010001003FF81E
:1043A0002108210821083FF82388054009203118F9
:1043B000C1060100CAFD082049202A20083EFF440A
:1043C0002A44494488A41028FE2822104210642858
:1043D00018283444C282B6C000204420282011FC92
:1043E000292449248924092419FC292448208828BF
:1043F00008240BFE51022000B7D6004004400420E0
:1044000008201010200840049FE20420042004200B
:1044100008200820102021404080C9E8000021F039
:10442000111011100110020EF40013F811081110F0
:10443000109014A0184010A003180C06D6C37FFCDF
:1044400044447FFC01007FFC01001FF010101FF0AE
:1044500010101FF010101FF01010FFFE0000CAB166
:10446000000800087C08440845FE440844087C080D
:1044700044884448444844087C0844080028001004
:10448000BCE4200013FC1004400447C444444444EA
:10449000444447C444444444444447C4400440144E
:1044A00040080000000000000000000000000000C4
:1044B00000000000000000000000000000000000FC
:1044C00000000000B4BF0000000000000201000670
:1044D0003FC00C3FE018030010020033366037265F
:1044E000203E66301C643018642031FEE03F1FC05F
:1044F0001C0C00000C000704003E07F00001C00087
:104500000000000000000000000000000000C9AB37
:1045100000000000000001FE0003E3000703000CA0
:1045200003001C3F003BFFC03F30600C30200C30CC
:10453000200C10200C10600FFFC0083F0008000086
:104540000800600E3FE007FC0000000000000000D3
:104550000000000000000000CCEE000000000000A1
:1045600000030000FFE00C07F00C06000CFF803F8A
:10457000F0E01FC0600CFE300CCC3004F83004FFBB
:104580002004C0201FFE603EC06001FFF001FFF06C
:10459000006060004000000000000000000000001B
:1045A0000000B3E400000000000000200000300024
:1045B00007FFF03FFFE00300000601800C018008C8
:1045C00001C01807E00FFE7007E0000206000604B5
:1045D000000404000404000C06700C07E000000056
:1045E000000000000000000000000000B2E2000037
:1045F0000000000000003039FC301FCC300706B04E
:104600000F06F01907B03137B03136F01F27F0012F
:1046100067F001E5F001E1F00041F00CF8B03CD8A2
:1046200030008C30008030000000000000000000EE
:10463000000000000000CAD40000000000000803D1
:10464000600C03700C0330003FE0003F8008010065
:104650003C0180047F80047D800C00800C10C00C25
:1046600010C00C18400C1C600F7E600670300000FB
:10467000300000000000000000000000000000000A
:10468000CEC400000000C00000E00000700001FF88
:10469000E01FFFC0180100000300000600000E002C
:1046A000001C000E180007300001E00000F00000C0
:1046B000FC00018F000303C00201E00000000000C5
:1046C00000000000000000000000D7D6000000003D
:1046D0000000002000003F0031FFE03FC020380014
:1046E0003030FE2033C660100200000C00001800BD
:1046F000001800000C0007FFE03FFFE0000400008E
:104700000C00000C00000000000000000000000091
:1047100000000000CFD400000000000007FF000FE1
:1047200003C00C00401FF8601800600800400E0134
:10473000C007FF0000000001840001840019878089
:104740000F8CE0078C2000CC0003FFE01FFFC000AF
:104750000000000000000000000000000000CABED1
:104760000000000000000E00001FFFC0007FE000FE
:104770000000000000000000000000003FC03FFFFC
:10478000E00030000030000030000613000C13C0C1
:104790000C18F018180018180000000000000000A5
:1047A0000000000000000000CDBC00000000000080
:1047B00007FF000F03801CC0C019FC6011C66033E6
:1047C000062033E63036FF30301FF030703030FCDA
:1047D00030339F3036002010E060187C400E01C05E
:1047E00003FF00003800000000000000000000008F
:1047F0000000C6AC00000000000008180018080007
:10480000180800180800180C201FFFF01FF80018E7
:10481000000010000010F8001FFE001E030010032F
:104820000010030010030010030018020000000035
:10483000000000000000000000000000CFD40000D5
:104840000000000007FF000F03C00C00401FF860CD
:104850001800600800400E01C007FF0000000001C2
:1048600084000184001987800F8CE0078C2000CC25
:104870000003FFE01FFFC000000000000000000078
:10488000000000000000CABE0000000000000E0092
:10489000001FFFC0007FE0000000000000000000DB
:1048A000000000003FC03FFFE0003000003000008B
:1048B00030000613000C13C00C18F018180018185C
:1048C00000000000000000000000000000000000E8
:1048D000B4A50000000000000601800FC1801E6129
:1048E00080304FC020CFE0078D303FC93033793062
:1048F0003379303FFB3037FF203267E03FE3803FC2
:10490000E3C03263603267F0304FB0000000000057
:1049100000000000000000000000C3FE00000000D6
:1049200000000030C000FFF00C79C00C1F800C7F2D
:10493000E03FE0600CC0300CFC3004C03007C030F9
:104940001E60603C3FC0041C00047FE000FFE000EC
:1049500030C00060600000000000000000000000A7
:1049600000000000CAE40000000000000C03800CFE
:104970000FC0081C703F70001F9FC0101FC01000A8
:1049800000367C3017E6301FE3B0067FB00277F0C8
:1049900007E3F03F7FF01336F003263003263000A4
:1049A0000000000000000000000000000000C8EB54
:1049B00000000000000006000003800001C00000AD
:1049C000E00000700000780000CC0000C600018309
:1049D000000301800700C00600E00C0070180030E2
:1049E000180000300000000000000000000000007F
:1049F00000000000000000000000000000000000B7
:104A000000000000000000000000000000000000A6
:104A10000000000000000000000000000000000096
:104A20000000000000000000000000000000000086
:104A30000000000000000000000000000000000076
:104A4000000000000100020001000300010002005C
:104A50000100040001000200010003000100020047
:104A60000100050001000200010003000100020036
:104A70000100040001000200010003000100020027
:104A80000100060001000200010003000100020015
:104A90000100040001000200010003000100020007
:104AA00001000500010002000100030001000200F6
:104AB00001000400010002000100030001000200E7
:104AC00001000700010002000100030001000200D4
:104AD00001000400010002000100030001000200C7
:104AE00001000500010002000100030001000200B6
:104AF00001000400010002000100030001000200A7
:104B00000100060001000200010003000100020094
:104B10000100040001000200010003000100020086
:104B20000100050001000200010003000100020075
:104B30000100040001000200010003000100020066
:104B400001000000644B000800000020B8000000D5
:104B50008C2500081C4C0008B8000020383D0000DF
:104B60009C2500080000000000000000000000007C
:104B7000000000002C01000000A24A040000000018
:104B800000000000010203040607080901000000FC
:104B90000200000003000000040000000500000007
:104BA00006000000070000000800000009000000E7
:104BB00000000000000000000000000000000102F2
:104BC00003040102030406070809020406080000A2
:104BD00000000000000000000000000000000000D5
:104BE00000000000000000000000000000000000C5
:104BF00000000000000000000000000000000000B5
:104C000000000000000000000000000000000000A4
:0C4C100000000000000000000000000098
:0400000508000145A9
:00000001FF
